:10C00000314000043C4000023D400A00B01258C2DA
:10C01000B012D8C1B01272C2829308025E241F42CD
:10C0200008023F5064001F92000207281F420802C6
:10C030003F5064001F9202021B2C1F4208023F5017
:10C0400064001F920402042C1C43B01252C1373CFE
:10C050001F4208023F5064001F920602042C2C432A
:10C06000B01252C12C3C3C400300B01252C1273CDC
:10C070001F4208023F5064001F92040207281F421B
:10C0800008023F5064001F920602192C1F4208024A
:10C090003F5064001F920002042C1C43B01252C196
:10C0A0000E3C1F4208023F5064001F920002042C05
:10C0B0002C43B01252C1033C2C42B01252C11F4259
:10C0C00000021F5202021F5204021F52060212C334
:10C0D0000F100F11824F080230411F4200021F5201
:10C0E00002021F5204021F52060212C30F100F1148
:10C0F000824F08023041A2D28001B240204E92010C
:10C100000C9309200D930720B24040069401B240E1
:10C1100040069601143CB290BD0294010628B290EC
:10C12000280A9401022C825C9401B290BD0296010F
:10C130000628B290280A9601022C825D9601B24030
:10C14000E0008401B240E0008601B24010028001AC
:10C1500030411C9309203D40CEFF0C43B012F6C085
:10C160003C402C013040A8C12C9309203D403200B6
:10C170000C43B012F6C03C402C013040A8C13C90AA
:10C18000030009200D433C403200B012F6C03C4091
:10C190002C013040A8C10D433C40CEFFB012F6C088
:10C1A0003C402C013040A8C10C12B240E7037201A0
:10C1B000A2D26001B24010026001073CB1530000FE
:10C1C00092B36001FD2B92C3600181930000F623BE
:10C1D0008243600121533041B240805A2001D24253
:10C1E000FF105700D242FE105600B01244C20D4359
:10C1F0000C43B012F6C03C40F401B012A8C1B0121A
:10C2000026C2B01208C2FD3FA2C3B00192B3B20170
:10C21000FD2FB2400002BC01B2D00300B00132D009
:10C220001800304018C0B2D09800B001B2D01E1033
:10C23000B201F2400F004A00E2424900B2D00300CE
:10C24000B0013041F2D012002A00F2D012002E00CC
:10C25000F2F0ED00420030410F4C0F5D033CCC4347
:10C2600000001C530C9FFB233041B1C010000000A4
:0CC270000013304076C230407AC2FF3F1D
:02FFEA006AC2E9
:02FFFE0000C041
:00C000013F
:00000001FF
